:020000040800F2
:100000000805002001020008090200080B02000890
:100010000D0200080F020008110200080000000095
:10002000000000000000000000000000490100087E
:1000300015020008000000009D010008750200087C
:100040001B0200081B0200081B0200081B0200081C
:100050001B0200081B0200081B0200081B0200080C
:100060001B0200081B0200081B0200081B020008FC
:100070001B0200081B0200081B0200081B020008EC
:100080001B0200081B0200081B0200081B020008DC
:100090001B0200081B0200081B0200081B020008CC
:1000A0001B0200081B0200081B0200081B020008BC
:1000B0001B0200081B0200081B0200081B020008AC
:1000C0001B0200081B0200081B0200081B0200089C
:1000D0001B0200081B0200081B0200081B0200088C
:1000E0001B0200081B0200081B0200081B0200087C
:1000F0001B0200081B0200081B0200081B0200086C
:100100001B0200081B0200081B0200081B0200085B
:100110001B0200081B0200081B0200081B0200084B
:100120001B0200081B0200081B0200081B0200083B
:10013000DFF810D000F08CF8004800476D0600088A
:10014000AFF30080080500202A4B19680868B0E862
:10015000F04F80F30988BFF36F8F4FF0000080F3FA
:10016000118870470000000006480068006880F3AE
:10017000088862B661B6BFF34F8FBFF36F8F00DFA1
:1001800000BF00BF08ED00E0DFF80C00016841F49B
:1001900070010160704700BF88ED00E0EFF3098057
:1001A000BFF36F8F134B1A681EF0100F08BF20EDBE
:1001B000108A20E9F04F106008B44FF0500080F32F
:1001C0001188BFF34F8FBFF36F8F00F0BBFC4FF070
:1001D000000080F3118808BC19680868B0E8F04F87
:1001E0001EF0100F08BFB0EC108A80F30988BFF32F
:1001F0006F8F704700000020EFF30580704700000C
:100200000648804706480047FEE7FEE7FEE7FEE7B0
:10021000FEE7FEE7FEE7FEE7FEE7FEE7A9020008CD
:100220003101000830B50B46014600202022012490
:1002300009E021FA02F59D4205D303FA02F5491BB4
:1002400004FA02F52844151EA2F10102F1DC30BDCA
:10025000064C074D06E0E06840F0010394E8070013
:1002600098471034AC42F6D3FFF766FF1C0D000828
:100270003C0D000810B500BF5020EFF3118180F352
:100280001188BFF34F8FBFF36F8F00BF00F0A0FC4A
:1002900018B14FF0805003490860002080F31188A6
:1002A00000BF10BD04ED00E008B51B48006840F435
:1002B0007000194908601948006840F001001749AA
:1002C00008600846406840F08000486000200090C8
:1002D00002E00098401C009044F62061009888429B
:1002E000F7D30E48406820F003000C4948600846E8
:1002F00000680B490840094908604FF41F008860F6
:100300000846006820F48020086000204860C86229
:1003100000F03CFB08BD000088ED00E0001002404A
:10032000FFFFF6FE0FB4054B10B503A9044A02986F
:1003300000F018F810BC5DF814FB00008D050008F3
:100340003800002002E008C8121F08C1002AFAD1B4
:1003500070477047002001E001C1121F002AFBD145
:10036000704700002DE9FF4F8BB09A460F460546B7
:10037000002606E025280BD052460D9990476D1CAB
:10038000761C28780028F5D10FB03046BDE8F08FF4
:100390000024A0460122604900E0044315F8013F13
:1003A000203B02FA03F00842F7D128782E2817D113
:1003B00015F8010F44F004042A280ED06FF02F0224
:1003C0002878A0F1300109290AD808EB880102EB4E
:1003D000410100EB01086D1CF2E757F8048B6D1C1E
:1003E000287869283ED006DC0028CDD063280BD0C1
:1003F000642804D136E0732810D075284BD05246BB
:100400000D999047761C85E017F8040B8DF80000D5
:1004100000208DF80100E946012003E057F8049B15
:100420004FF0FF3061074FF0000401D40AE0641C74
:1004300044450DDA8442FADB19F804100029F6D19C
:1004400006E0641C8442FCDB19F804100029F8D192
:10045000264404E019F8010B52460D999047641E9A
:10046000F8D257E001CF4FF00A0B002802DA4042E1
:100470002D2102E0210504D52B218DF82410012126
:1004800003E0E10705D02021F7E70DF120090891ED
:100490000CE00021F9E701CF4FF00A0BF9E75946CC
:1004A000FFF7C0FE01F1300209F8012D0028F6D156
:1004B000ADEB090000F1200B600701D44FF00108FB
:1004C000D84502DDA8EB0B0000E0002080460024A8
:1004D00006E009A85246005D0D999047641C761C01
:1004E00008988442F5DB04E0302052460D9990478D
:1004F000761CB8F10001A8F10108F5DC05E019F857
:10050000010B52460D999047761CBBF10001ABF1EF
:10051000010BF4DC6D1C34E70928010010B540F232
:10052000026000F079F940F20E6000F075F94FF4C6
:100530000073032218210F4800F03AF84FF480634B
:10054000032204210B4800F033F80B4800F06EFA48
:100550004FF4E131084800F01DFA0421064800F08C
:10056000C1FA0821044800F0C5FA034800F0A6FAD1
:1005700010BD000000080140003801404FF4001099
:1005800000BF011EA0F10100FBD1704770B5044609
:100590000D46E1B2054800F045FA00BF07210348C7
:1005A00000F091FA0028F9D0204670BD00380140D3
:1005B000F0B5044616460025002201F00F0501F0B3
:1005C000100747B1042E05D145F00305E76B1F4323
:1005D000E76300E0354300201EE0012787401F400D
:1005E000C7B122684FEA800C0F2707FA0CF7BA430D
:1005F000870005FA07F73A43282904D101278740E5
:100600001F40676105E0482903D1012787401F404B
:1006100027612260471CB8B20828DED3082022E0F8
:10062000012787401F40E7B16268A0F108074FEA41
:10063000870C0F2707FA0CF7BA43A0F10807BF0091
:1006400005FA07F73A43282904D1012787401F40BC
:10065000676105E0482903D1012787401F402761D2
:100660006260471CB8B21028DAD3F0BDFFF756FF1E
:1006700004E003A0FFF756FEFFF780FFF9E7000054
:1006800072756E202E2E2E0D0A0000000A49096890
:10069000096809B9012100E0002121B14FF0FF31C3
:1006A000064A116006E004490968C968C868034A37
:1006B00041681160704700000400002030000020F5
:1006C0002DE9F04F8CB0074600200A904AA090E830
:1006D000004CC068CDE905BECDF810A007900FF220
:1006E0001C1ADAE9000ACDE9020A0FF2101ADAE957
:1006F000000ACDE9000A44484068C0F381000B902D
:100700000B9820B1012804D002283FD103E03F4AD2
:100710003EE03E4A3CE03C48406800F4803CBCF58A
:10072000803F12D13848C06A00F08048B8F1000F0D
:1007300001D1364B00E0364B3348406800F40039B5
:10074000B9F5003F02D15B0800E0324B2E4840680B
:10075000C0F383412C48406800F0006008B141F0CC
:1007600010012948406800F0804008B141F02001A4
:100770000F2901D2891C06E00F2903D33E2901D895
:10078000491C00E03F2103FB01F201E01F4A00BFCA
:1007900000BF1D484068C0F3031504A8465D22FA57
:1007A00006F419484068C0F3022502A8465D24FA01
:1007B00006F0099014484068C0F3C2251DF8056092
:1007C00024FA06F0089037B1012F06D0022F06D088
:1007D000032F0AD106E00A9208E00A9406E009987D
:1007E0000A9003E008980A9000E000BF00BF0A9852
:1007F0000CB0BDE8F08F0000000000000000000019
:1008000001020304060708090010024000127A00E2
:10081000006CDC0200093D00064A02EB90110968F9
:1008200000F01F0301229A401143024B03EB901288
:100830001160704700100240064A02EB90110968EF
:1008400000F01F0301229A409143024B03EB9012E8
:100850001160704700100240064A02EB90110968CF
:1008600000F01F0301229A401143024B03EB901248
:100870001160704700100240002000213F4A1268BA
:1008800042F480323D4B1A6000BF401C3B4A126864
:1008900002F4003119B94FF6FF729042F5D1374A90
:1008A000126802F400320AB900BFFEE7334AD26987
:1008B00042F08052314BDA61314A126842F44042D0
:1008C0002F4B1A602D4A52682C4B5A601A465268B8
:1008D0005A601A46526842F480625A601A46526858
:1008E00022F440325A601A46526842F440325A604A
:1008F0001A465268234B1A40204B5A601A465268D7
:10090000214B1A431D4B5A601A46126842F08072FE
:100910001A6000BF194A126802F00072002AF9D06A
:10092000174A126842F48032154B1A6000BF144A0D
:10093000526802F48032002AF9D0114A126842F457
:1009400000320F4B1A6000BF0D4A526802F40032A9
:10095000002AF9D0094A526822F00302074B5A6074
:100960001A46526842F002025A6000BF034A5268B7
:1009700002F00802002AF9D070470000001002407F
:1009800000700040FFFFC3B70000340810B5FFF748
:1009900073FF10BD2DE9F04704460D460027B84609
:1009A000B94600261D49601A8C421CD006DC1C4842
:1009B000204470B1B0F5806F1FD10FE0B0F5806FAB
:1009C00016D0B0F56C4F18D10320FFF779FE07461B
:1009D00014E00220FFF774FE07460FE00220FFF745
:1009E0006FFE07460AE00220FFF76AFE074605E0B1
:1009F0000220FFF765FE074600E000BF00BF07EBDF
:100A00005500B0FBF5F64FF6F07006EA000806F068
:100A10000F0948EA0900A060BDE8F087004C0040DB
:100A200000BCFFBFC1F308024260704710B5044626
:100A30002049601A8C4228D006DC1F48204490B11F
:100A4000B0F5806F33D117E0B0F5806F26D0B0F5E8
:100A50006C4F2CD140F20E30FFF7FEFE40F20E300C
:100A6000FFF7EAFE24E040F21140FFF7F5FE40F206
:100A70001140FFF7E1FE1BE040F21240FFF7ECFEF1
:100A800040F21240FFF7D8FE12E040F21340FFF7A9
:100A9000E3FE40F21340FFF7CFFE09E040F21440BE
:100AA000FFF7DAFE40F21440FFF7C6FE00E000BF99
:100AB00000BF10BD004C004000BCFFBFC16841F446
:100AC0000051C160704710B5024602EB91100068FA
:100AD00001F01F040123A340184008B1012010BDFC
:100AE0000020FCE70A460021C16821F004011143FF
:100AF000C16070470A460021C16821F00801114316
:100B0000C160704701460A69D1E901309860D1E9B6
:100B1000010358605068884201D188685060002005
:100B200008611068401E10601068704742684A6093
:100B300093688B60936859609160086103685B1CDF
:100B4000036070471D48006818B101201C49086007
:100B500032E000201A4908601A480068B0FA80F0B4
:100B6000C0F11F0101EB8100174A52F8200008B1C3
:100B7000012000E0002050B900BF502080F3118810
:100B8000BFF34F8FBFF36F8F00BF00BFFEE701EBD6
:100B900081020D4B03EB820042685268426000F113
:100BA00008024368934202D1426852684260426838
:100BB000D268064B1A6000BF704700003400002066
:100BC00024000020180000203C000020000000202D
:100BD0002DE9F0414FF0000845480068002879D120
:100BE00044480068401C434908600846066816BB34
:100BF00041480068006808B9012000E0002050B9B1
:100C000000BF502080F31188BFF34F8FBFF36F8F69
:100C100000BF00BFFEE7384807683848006836491B
:100C200008603648076036480068401C3449086050
:100C3000FFF72CFD00BF3348006886423CD300BF5D
:100C40002D480068006808B9012000E0002020B1AC
:100C50004FF0FF302B4908602DE027480068C0683E
:100C6000C4686568AE4202D22648056023E0201DB4
:100C7000FFF748FFA06A18B104F11800FFF742FF20
:100C800094F82C10012088401F49096808431E4928
:100C90000860E16A01EB81011C4A02EB8100211D21
:100CA000FFF744FF1A49E06A0968C96A8842C7D356
:100CB0004FF00108C4E700BF15480068C06A00EBA8
:100CC0008000124951F82000012808D94FF001088E
:100CD00005E0FFE70F480068401C0E4908600E4819
:100CE000006808B14FF001084046BDE8F0810000FF
:100CF0003400002014000020040000200800002020
:100D00002800002030000020180000203C000020B7
:100D10000000002020000020240000203C0D0008DE
:100D2000000000203C00000044030008780D00088B
:100D30003C000020CC040000540300080000000028
:100D400000000000000000000000000000000000A3
:100D50000000000000000000000000000000000093
:100D60000000000000000000000000000000000083
:080D700000000000000000007B
:0400000508000131BD
:00000001FF
